{
  "contractName": "MyNFT",
  "abi": [
    {
      "inputs": [
        {
          "internalType": "address",
          "name": "initialOwner",
          "type": "address"
        }
      ],
      "stateMutability": "nonpayable",
      "type": "constructor"
    },
    {
      "inputs": [
        {
          "internalType": "address",
          "name": "sender",
          "type": "address"
        },
        {
          "internalType": "uint256",
          "name": "tokenId",
          "type": "uint256"
        },
        {
          "internalType": "address",
          "name": "owner",
          "type": "address"
        }
      ],
      "name": "ERC721IncorrectOwner",
      "type": "error"
    },
    {
      "inputs": [
        {
          "internalType": "address",
          "name": "operator",
          "type": "address"
        },
        {
          "internalType": "uint256",
          "name": "tokenId",
          "type": "uint256"
        }
      ],
      "name": "ERC721InsufficientApproval",
      "type": "error"
    },
    {
      "inputs": [
        {
          "internalType": "address",
          "name": "approver",
          "type": "address"
        }
      ],
      "name": "ERC721InvalidApprover",
      "type": "error"
    },
    {
      "inputs": [
        {
          "internalType": "address",
          "name": "operator",
          "type": "address"
        }
      ],
      "name": "ERC721InvalidOperator",
      "type": "error"
    },
    {
      "inputs": [
        {
          "internalType": "address",
          "name": "owner",
          "type": "address"
        }
      ],
      "name": "ERC721InvalidOwner",
      "type": "error"
    },
    {
      "inputs": [
        {
          "internalType": "address",
          "name": "receiver",
          "type": "address"
        }
      ],
      "name": "ERC721InvalidReceiver",
      "type": "error"
    },
    {
      "inputs": [
        {
          "internalType": "address",
          "name": "sender",
          "type": "address"
        }
      ],
      "name": "ERC721InvalidSender",
      "type": "error"
    },
    {
      "inputs": [
        {
          "internalType": "uint256",
          "name": "tokenId",
          "type": "uint256"
        }
      ],
      "name": "ERC721NonexistentToken",
      "type": "error"
    },
    {
      "inputs": [],
      "name": "EnforcedPause",
      "type": "error"
    },
    {
      "inputs": [],
      "name": "ExpectedPause",
      "type": "error"
    },
    {
      "inputs": [
        {
          "internalType": "address",
          "name": "owner",
          "type": "address"
        }
      ],
      "name": "OwnableInvalidOwner",
      "type": "error"
    },
    {
      "inputs": [
        {
          "internalType": "address",
          "name": "account",
          "type": "address"
        }
      ],
      "name": "OwnableUnauthorizedAccount",
      "type": "error"
    },
    {
      "anonymous": false,
      "inputs": [
        {
          "indexed": true,
          "internalType": "address",
          "name": "owner",
          "type": "address"
        },
        {
          "indexed": true,
          "internalType": "address",
          "name": "approved",
          "type": "address"
        },
        {
          "indexed": true,
          "internalType": "uint256",
          "name": "tokenId",
          "type": "uint256"
        }
      ],
      "name": "Approval",
      "type": "event"
    },
    {
      "anonymous": false,
      "inputs": [
        {
          "indexed": true,
          "internalType": "address",
          "name": "owner",
          "type": "address"
        },
        {
          "indexed": true,
          "internalType": "address",
          "name": "operator",
          "type": "address"
        },
        {
          "indexed": false,
          "internalType": "bool",
          "name": "approved",
          "type": "bool"
        }
      ],
      "name": "ApprovalForAll",
      "type": "event"
    },
    {
      "anonymous": false,
      "inputs": [
        {
          "indexed": false,
          "internalType": "uint256",
          "name": "_fromTokenId",
          "type": "uint256"
        },
        {
          "indexed": false,
          "internalType": "uint256",
          "name": "_toTokenId",
          "type": "uint256"
        }
      ],
      "name": "BatchMetadataUpdate",
      "type": "event"
    },
    {
      "anonymous": false,
      "inputs": [
        {
          "indexed": false,
          "internalType": "uint256",
          "name": "_tokenId",
          "type": "uint256"
        }
      ],
      "name": "MetadataUpdate",
      "type": "event"
    },
    {
      "anonymous": false,
      "inputs": [
        {
          "indexed": true,
          "internalType": "address",
          "name": "previousOwner",
          "type": "address"
        },
        {
          "indexed": true,
          "internalType": "address",
          "name": "newOwner",
          "type": "address"
        }
      ],
      "name": "OwnershipTransferred",
      "type": "event"
    },
    {
      "anonymous": false,
      "inputs": [
        {
          "indexed": false,
          "internalType": "address",
          "name": "account",
          "type": "address"
        }
      ],
      "name": "Paused",
      "type": "event"
    },
    {
      "anonymous": false,
      "inputs": [
        {
          "indexed": true,
          "internalType": "address",
          "name": "from",
          "type": "address"
        },
        {
          "indexed": true,
          "internalType": "address",
          "name": "to",
          "type": "address"
        },
        {
          "indexed": true,
          "internalType": "uint256",
          "name": "tokenId",
          "type": "uint256"
        }
      ],
      "name": "Transfer",
      "type": "event"
    },
    {
      "anonymous": false,
      "inputs": [
        {
          "indexed": false,
          "internalType": "address",
          "name": "account",
          "type": "address"
        }
      ],
      "name": "Unpaused",
      "type": "event"
    },
    {
      "inputs": [
        {
          "internalType": "address",
          "name": "to",
          "type": "address"
        },
        {
          "internalType": "uint256",
          "name": "tokenId",
          "type": "uint256"
        }
      ],
      "name": "approve",
      "outputs": [],
      "stateMutability": "nonpayable",
      "type": "function"
    },
    {
      "inputs": [
        {
          "internalType": "address",
          "name": "owner",
          "type": "address"
        }
      ],
      "name": "balanceOf",
      "outputs": [
        {
          "internalType": "uint256",
          "name": "",
          "type": "uint256"
        }
      ],
      "stateMutability": "view",
      "type": "function"
    },
    {
      "inputs": [
        {
          "internalType": "uint256",
          "name": "tokenId",
          "type": "uint256"
        }
      ],
      "name": "getApproved",
      "outputs": [
        {
          "internalType": "address",
          "name": "",
          "type": "address"
        }
      ],
      "stateMutability": "view",
      "type": "function"
    },
    {
      "inputs": [
        {
          "internalType": "address",
          "name": "owner",
          "type": "address"
        },
        {
          "internalType": "address",
          "name": "operator",
          "type": "address"
        }
      ],
      "name": "isApprovedForAll",
      "outputs": [
        {
          "internalType": "bool",
          "name": "",
          "type": "bool"
        }
      ],
      "stateMutability": "view",
      "type": "function"
    },
    {
      "inputs": [],
      "name": "name",
      "outputs": [
        {
          "internalType": "string",
          "name": "",
          "type": "string"
        }
      ],
      "stateMutability": "view",
      "type": "function"
    },
    {
      "inputs": [],
      "name": "owner",
      "outputs": [
        {
          "internalType": "address",
          "name": "",
          "type": "address"
        }
      ],
      "stateMutability": "view",
      "type": "function"
    },
    {
      "inputs": [
        {
          "internalType": "uint256",
          "name": "tokenId",
          "type": "uint256"
        }
      ],
      "name": "ownerOf",
      "outputs": [
        {
          "internalType": "address",
          "name": "",
          "type": "address"
        }
      ],
      "stateMutability": "view",
      "type": "function"
    },
    {
      "inputs": [],
      "name": "paused",
      "outputs": [
        {
          "internalType": "bool",
          "name": "",
          "type": "bool"
        }
      ],
      "stateMutability": "view",
      "type": "function"
    },
    {
      "inputs": [],
      "name": "renounceOwnership",
      "outputs": [],
      "stateMutability": "nonpayable",
      "type": "function"
    },
    {
      "inputs": [
        {
          "internalType": "address",
          "name": "from",
          "type": "address"
        },
        {
          "internalType": "address",
          "name": "to",
          "type": "address"
        },
        {
          "internalType": "uint256",
          "name": "tokenId",
          "type": "uint256"
        }
      ],
      "name": "safeTransferFrom",
      "outputs": [],
      "stateMutability": "nonpayable",
      "type": "function"
    },
    {
      "inputs": [
        {
          "internalType": "address",
          "name": "from",
          "type": "address"
        },
        {
          "internalType": "address",
          "name": "to",
          "type": "address"
        },
        {
          "internalType": "uint256",
          "name": "tokenId",
          "type": "uint256"
        },
        {
          "internalType": "bytes",
          "name": "data",
          "type": "bytes"
        }
      ],
      "name": "safeTransferFrom",
      "outputs": [],
      "stateMutability": "nonpayable",
      "type": "function"
    },
    {
      "inputs": [
        {
          "internalType": "address",
          "name": "operator",
          "type": "address"
        },
        {
          "internalType": "bool",
          "name": "approved",
          "type": "bool"
        }
      ],
      "name": "setApprovalForAll",
      "outputs": [],
      "stateMutability": "nonpayable",
      "type": "function"
    },
    {
      "inputs": [],
      "name": "symbol",
      "outputs": [
        {
          "internalType": "string",
          "name": "",
          "type": "string"
        }
      ],
      "stateMutability": "view",
      "type": "function"
    },
    {
      "inputs": [
        {
          "internalType": "address",
          "name": "from",
          "type": "address"
        },
        {
          "internalType": "address",
          "name": "to",
          "type": "address"
        },
        {
          "internalType": "uint256",
          "name": "tokenId",
          "type": "uint256"
        }
      ],
      "name": "transferFrom",
      "outputs": [],
      "stateMutability": "nonpayable",
      "type": "function"
    },
    {
      "inputs": [
        {
          "internalType": "address",
          "name": "newOwner",
          "type": "address"
        }
      ],
      "name": "transferOwnership",
      "outputs": [],
      "stateMutability": "nonpayable",
      "type": "function"
    },
    {
      "inputs": [],
      "name": "pause",
      "outputs": [],
      "stateMutability": "nonpayable",
      "type": "function"
    },
    {
      "inputs": [],
      "name": "unpause",
      "outputs": [],
      "stateMutability": "nonpayable",
      "type": "function"
    },
    {
      "inputs": [
        {
          "internalType": "address",
          "name": "to",
          "type": "address"
        },
        {
          "internalType": "uint256",
          "name": "tokenId",
          "type": "uint256"
        },
        {
          "internalType": "string",
          "name": "uri",
          "type": "string"
        }
      ],
      "name": "safeMint",
      "outputs": [],
      "stateMutability": "nonpayable",
      "type": "function"
    },
    {
      "inputs": [
        {
          "internalType": "address",
          "name": "to",
          "type": "address"
        },
        {
          "internalType": "uint256",
          "name": "energyConsumption",
          "type": "uint256"
        },
        {
          "internalType": "uint256",
          "name": "tokenId",
          "type": "uint256"
        },
        {
          "internalType": "string",
          "name": "uri",
          "type": "string"
        }
      ],
      "name": "rewardIfEnergyLow",
      "outputs": [],
      "stateMutability": "nonpayable",
      "type": "function"
    },
    {
      "inputs": [
        {
          "internalType": "uint256",
          "name": "tokenId",
          "type": "uint256"
        }
      ],
      "name": "tokenURI",
      "outputs": [
        {
          "internalType": "string",
          "name": "",
          "type": "string"
        }
      ],
      "stateMutability": "view",
      "type": "function"
    },
    {
      "inputs": [
        {
          "internalType": "bytes4",
          "name": "interfaceId",
          "type": "bytes4"
        }
      ],
      "name": "supportsInterface",
      "outputs": [
        {
          "internalType": "bool",
          "name": "",
          "type": "bool"
        }
      ],
      "stateMutability": "view",
      "type": "function"
    }
  ],
  "bytecode": "0x608060405234801561000f575f80fd5b50604051612e9d380380612e9d83398181016040528101906100319190610281565b806040518060400160405280600581526020017f4d794e46540000000000000000000000000000000000000000000000000000008152506040518060400160405280600481526020017f564e465400000000000000000000000000000000000000000000000000000000815250815f90816100ac91906104e6565b5080600190816100bc91906104e6565b5050505f60075f6101000a81548160ff0219169083151502179055505f73ffffffffffffffffffffffffffffffffffffffff168173ffffffffffffffffffffffffffffffffffffffff1603610148575f6040517f1e4fbdf700000000000000000000000000000000000000000000000000000000815260040161013f91906105c4565b60405180910390fd5b6101578161015e60201b60201c565b50506105dd565b5f600760019054906101000a900473ffffffffffffffffffffffffffffffffffffffff16905081600760016101000a81548173ffffffffffffffffffffffffffffffffffffffff021916908373ffffffffffffffffffffffffffffffffffffffff1602179055508173ffffffffffffffffffffffffffffffffffffffff168173ffffffffffffffffffffffffffffffffffffffff167f8be0079c531659141344cd1fd0a4f28419497f9722a3daafe3b4186f6b6457e060405160405180910390a35050565b5f80fd5b5f73ffffffffffffffffffffffffffffffffffffffff82169050919050565b5f61025082610227565b9050919050565b61026081610246565b811461026a575f80fd5b50565b5f8151905061027b81610257565b92915050565b5f6020828403121561029657610295610223565b5b5f6102a38482850161026d565b91505092915050565b5f81519050919050565b7f4e487b71000000000000000000000000000000000000000000000000000000005f52604160045260245ffd5b7f4e487b71000000000000000000000000000000000000000000000000000000005f52602260045260245ffd5b5f600282049050600182168061032757607f821691505b60208210810361033a576103396102e3565b5b50919050565b5f819050815f5260205f209050919050565b5f6020601f8301049050919050565b5f82821b905092915050565b5f6008830261039c7fffffffffffffffffffffffffffffffffffffffffffffffffffffffffffffffff82610361565b6103a68683610361565b95508019841693508086168417925050509392505050565b5f819050919050565b5f819050919050565b5f6103ea6103e56103e0846103be565b6103c7565b6103be565b9050919050565b5f819050919050565b610403836103d0565b61041761040f826103f1565b84845461036d565b825550505050565b5f90565b61042b61041f565b6104368184846103fa565b505050565b5b818110156104595761044e5f82610423565b60018101905061043c565b5050565b601f82111561049e5761046f81610340565b61047884610352565b81016020851015610487578190505b61049b61049385610352565b83018261043b565b50505b505050565b5f82821c905092915050565b5f6104be5f19846008026104a3565b1980831691505092915050565b5f6104d683836104af565b9150826002028217905092915050565b6104ef826102ac565b67ffffffffffffffff811115610508576105076102b6565b5b6105128254610310565b61051d82828561045d565b5f60209050601f83116001811461054e575f841561053c578287015190505b61054685826104cb565b8655506105ad565b601f19841661055c86610340565b5f5b828110156105835784890151825560018201915060208501945060208101905061055e565b868310156105a0578489015161059c601f8916826104af565b8355505b6001600288020188555050505b505050505050565b6105be81610246565b82525050565b5f6020820190506105d75f8301846105b5565b92915050565b6128b3806105ea5f395ff3fe608060405234801561000f575f80fd5b5060043610610135575f3560e01c806370a08231116100b6578063a22cb4651161007a578063a22cb465146102ff578063b88d4fde1461031b578063c87b56dd14610337578063cd279c7c14610367578063e985e9c514610383578063f2fde38b146103b357610135565b806370a082311461027f578063715018a6146102af5780638456cb59146102b95780638da5cb5b146102c357806395d89b41146102e157610135565b80633f4ba83a116100fd5780633f4ba83a146101ef57806342842e0e146101f95780634b07d7cb146102155780635c975abb146102315780636352211e1461024f57610135565b806301ffc9a71461013957806306fdde0314610169578063081812fc14610187578063095ea7b3146101b757806323b872dd146101d3575b5f80fd5b610153600480360381019061014e9190611cda565b6103cf565b6040516101609190611d1f565b60405180910390f35b6101716103e0565b60405161017e9190611da8565b60405180910390f35b6101a1600480360381019061019c9190611dfb565b61046f565b6040516101ae9190611e65565b60405180910390f35b6101d160048036038101906101cc9190611ea8565b61048a565b005b6101ed60048036038101906101e89190611ee6565b6104a0565b005b6101f761059f565b005b610213600480360381019061020e9190611ee6565b6105b1565b005b61022f600480360381019061022a9190612062565b6105d0565b005b610239610636565b6040516102469190611d1f565b60405180910390f35b61026960048036038101906102649190611dfb565b61064b565b6040516102769190611e65565b60405180910390f35b610299600480360381019061029491906120e2565b61065c565b6040516102a6919061211c565b60405180910390f35b6102b7610712565b005b6102c1610725565b005b6102cb610737565b6040516102d89190611e65565b60405180910390f35b6102e9610760565b6040516102f69190611da8565b60405180910390f35b6103196004803603810190610314919061215f565b6107f0565b005b6103356004803603810190610330919061223b565b610806565b005b610351600480360381019061034c9190611dfb565b610823565b60405161035e9190611da8565b60405180910390f35b610381600480360381019061037c91906122bb565b610835565b005b61039d60048036038101906103989190612327565b610856565b6040516103aa9190611d1f565b60405180910390f35b6103cd60048036038101906103c891906120e2565b6108e4565b005b5f6103d982610968565b9050919050565b60605f80546103ee90612392565b80601f016020809104026020016040519081016040528092919081815260200182805461041a90612392565b80156104655780601f1061043c57610100808354040283529160200191610465565b820191905f5260205f20905b81548152906001019060200180831161044857829003601f168201915b5050505050905090565b5f610479826109c8565b5061048382610a4e565b9050919050565b61049c8282610497610a87565b610a8e565b5050565b5f73ffffffffffffffffffffffffffffffffffffffff168273ffffffffffffffffffffffffffffffffffffffff1603610510575f6040517f64a0ae920000000000000000000000000000000000000000000000000000000081526004016105079190611e65565b60405180910390fd5b5f610523838361051e610a87565b610aa0565b90508373ffffffffffffffffffffffffffffffffffffffff168173ffffffffffffffffffffffffffffffffffffffff1614610599578382826040517f64283d7b000000000000000000000000000000000000000000000000000000008152600401610590939291906123c2565b60405180910390fd5b50505050565b6105a7610ab5565b6105af610b3c565b565b6105cb83838360405180602001604052805f815250610806565b505050565b6105d8610ab5565b603283111561061c576040517f08c379a000000000000000000000000000000000000000000000000000000000815260040161061390612467565b60405180910390fd5b6106268483610b9d565b6106308282610bba565b50505050565b5f60075f9054906101000a900460ff16905090565b5f610655826109c8565b9050919050565b5f8073ffffffffffffffffffffffffffffffffffffffff168273ffffffffffffffffffffffffffffffffffffffff16036106cd575f6040517f89c62b640000000000000000000000000000000000000000000000000000000081526004016106c49190611e65565b60405180910390fd5b60035f8373ffffffffffffffffffffffffffffffffffffffff1673ffffffffffffffffffffffffffffffffffffffff1681526020019081526020015f20549050919050565b61071a610ab5565b6107235f610c14565b565b61072d610ab5565b610735610cd9565b565b5f600760019054906101000a900473ffffffffffffffffffffffffffffffffffffffff16905090565b60606001805461076f90612392565b80601f016020809104026020016040519081016040528092919081815260200182805461079b90612392565b80156107e65780601f106107bd576101008083540402835291602001916107e6565b820191905f5260205f20905b8154815290600101906020018083116107c957829003601f168201915b5050505050905090565b6108026107fb610a87565b8383610d3b565b5050565b6108118484846104a0565b61081d84848484610ea4565b50505050565b606061082e82611056565b9050919050565b61083d610ab5565b6108478383610b9d565b6108518282610bba565b505050565b5f60055f8473ffffffffffffffffffffffffffffffffffffffff1673ffffffffffffffffffffffffffffffffffffffff1681526020019081526020015f205f8373ffffffffffffffffffffffffffffffffffffffff1673ffffffffffffffffffffffffffffffffffffffff1681526020019081526020015f205f9054906101000a900460ff16905092915050565b6108ec610ab5565b5f73ffffffffffffffffffffffffffffffffffffffff168173ffffffffffffffffffffffffffffffffffffffff160361095c575f6040517f1e4fbdf70000000000000000000000000000000000000000000000000000000081526004016109539190611e65565b60405180910390fd5b61096581610c14565b50565b5f634906490660e01b7bffffffffffffffffffffffffffffffffffffffffffffffffffffffff1916827bffffffffffffffffffffffffffffffffffffffffffffffffffffffff191614806109c157506109c082611161565b5b9050919050565b5f806109d383611242565b90505f73ffffffffffffffffffffffffffffffffffffffff168173ffffffffffffffffffffffffffffffffffffffff1603610a4557826040517f7e273289000000000000000000000000000000000000000000000000000000008152600401610a3c919061211c565b60405180910390fd5b80915050919050565b5f60045f8381526020019081526020015f205f9054906101000a900473ffffffffffffffffffffffffffffffffffffffff169050919050565b5f33905090565b610a9b838383600161127b565b505050565b5f610aac84848461143a565b90509392505050565b610abd610a87565b73ffffffffffffffffffffffffffffffffffffffff16610adb610737565b73ffffffffffffffffffffffffffffffffffffffff1614610b3a57610afe610a87565b6040517f118cdaa7000000000000000000000000000000000000000000000000000000008152600401610b319190611e65565b60405180910390fd5b565b610b44611457565b5f60075f6101000a81548160ff0219169083151502179055507f5db9ee0a495bf2e6ff9c91a7834c1ba4fdd244a5e8aa4e537bd38aeae4b073aa610b86610a87565b604051610b939190611e65565b60405180910390a1565b610bb6828260405180602001604052805f815250611497565b5050565b8060065f8481526020019081526020015f209081610bd89190612622565b507ff8e1a15aba9398e019f0b49df1a4fde98ee17ae345cb5f6b5e2c27f5033e8ce782604051610c08919061211c565b60405180910390a15050565b5f600760019054906101000a900473ffffffffffffffffffffffffffffffffffffffff16905081600760016101000a81548173ffffffffffffffffffffffffffffffffffffffff021916908373ffffffffffffffffffffffffffffffffffffffff1602179055508173ffffffffffffffffffffffffffffffffffffffff168173ffffffffffffffffffffffffffffffffffffffff167f8be0079c531659141344cd1fd0a4f28419497f9722a3daafe3b4186f6b6457e060405160405180910390a35050565b610ce16114b2565b600160075f6101000a81548160ff0219169083151502179055507f62e78cea01bee320cd4e420270b5ea74000d11b0c9f74754ebdbfc544b05a258610d24610a87565b604051610d319190611e65565b60405180910390a1565b5f73ffffffffffffffffffffffffffffffffffffffff168273ffffffffffffffffffffffffffffffffffffffff1603610dab57816040517f5b08ba18000000000000000000000000000000000000000000000000000000008152600401610da29190611e65565b60405180910390fd5b8060055f8573ffffffffffffffffffffffffffffffffffffffff1673ffffffffffffffffffffffffffffffffffffffff1681526020019081526020015f205f8473ffffffffffffffffffffffffffffffffffffffff1673ffffffffffffffffffffffffffffffffffffffff1681526020019081526020015f205f6101000a81548160ff0219169083151502179055508173ffffffffffffffffffffffffffffffffffffffff168373ffffffffffffffffffffffffffffffffffffffff167f17307eab39ab6107e8899845ad3d59bd9653f200f220920489ca2b5937696c3183604051610e979190611d1f565b60405180910390a3505050565b5f8373ffffffffffffffffffffffffffffffffffffffff163b1115611050578273ffffffffffffffffffffffffffffffffffffffff1663150b7a02610ee7610a87565b8685856040518563ffffffff1660e01b8152600401610f099493929190612743565b6020604051808303815f875af1925050508015610f4457506040513d601f19601f82011682018060405250810190610f4191906127a1565b60015b610fc5573d805f8114610f72576040519150601f19603f3d011682016040523d82523d5f602084013e610f77565b606091505b505f815103610fbd57836040517f64a0ae92000000000000000000000000000000000000000000000000000000008152600401610fb49190611e65565b60405180910390fd5b805181602001fd5b63150b7a0260e01b7bffffffffffffffffffffffffffffffffffffffffffffffffffffffff1916817bffffffffffffffffffffffffffffffffffffffffffffffffffffffff19161461104e57836040517f64a0ae920000000000000000000000000000000000000000000000000000000081526004016110459190611e65565b60405180910390fd5b505b50505050565b6060611061826109c8565b505f60065f8481526020019081526020015f20805461107f90612392565b80601f01602080910402602001604051908101604052809291908181526020018280546110ab90612392565b80156110f65780601f106110cd576101008083540402835291602001916110f6565b820191905f5260205f20905b8154815290600101906020018083116110d957829003601f168201915b505050505090505f6111066114f3565b90505f81510361111a57819250505061115c565b5f8251111561114e578082604051602001611136929190612806565b6040516020818303038152906040529250505061115c565b61115784611509565b925050505b919050565b5f7f80ac58cd000000000000000000000000000000000000000000000000000000007bffffffffffffffffffffffffffffffffffffffffffffffffffffffff1916827bffffffffffffffffffffffffffffffffffffffffffffffffffffffff1916148061122b57507f5b5e139f000000000000000000000000000000000000000000000000000000007bffffffffffffffffffffffffffffffffffffffffffffffffffffffff1916827bffffffffffffffffffffffffffffffffffffffffffffffffffffffff1916145b8061123b575061123a8261156f565b5b9050919050565b5f60025f8381526020019081526020015f205f9054906101000a900473ffffffffffffffffffffffffffffffffffffffff169050919050565b80806112b357505f73ffffffffffffffffffffffffffffffffffffffff168273ffffffffffffffffffffffffffffffffffffffff1614155b156113e5575f6112c2846109c8565b90505f73ffffffffffffffffffffffffffffffffffffffff168373ffffffffffffffffffffffffffffffffffffffff161415801561132c57508273ffffffffffffffffffffffffffffffffffffffff168173ffffffffffffffffffffffffffffffffffffffff1614155b801561133f575061133d8184610856565b155b1561138157826040517fa9fbf51f0000000000000000000000000000000000000000000000000000000081526004016113789190611e65565b60405180910390fd5b81156113e357838573ffffffffffffffffffffffffffffffffffffffff168273ffffffffffffffffffffffffffffffffffffffff167f8c5be1e5ebec7d5bd14f71427d1e84f3dd0314c0f7b2291e5b200ac8c7c3b92560405160405180910390a45b505b8360045f8581526020019081526020015f205f6101000a81548173ffffffffffffffffffffffffffffffffffffffff021916908373ffffffffffffffffffffffffffffffffffffffff16021790555050505050565b5f6114436114b2565b61144e8484846115d8565b90509392505050565b61145f610636565b611495576040517f8dfc202b00000000000000000000000000000000000000000000000000000000815260040160405180910390fd5b565b6114a183836117e3565b6114ad5f848484610ea4565b505050565b6114ba610636565b156114f1576040517fd93c066500000000000000000000000000000000000000000000000000000000815260040160405180910390fd5b565b606060405180602001604052805f815250905090565b6060611514826109c8565b505f61151e6114f3565b90505f81511161153c5760405180602001604052805f815250611567565b80611546846118d6565b604051602001611557929190612806565b6040516020818303038152906040525b915050919050565b5f7f01ffc9a7000000000000000000000000000000000000000000000000000000007bffffffffffffffffffffffffffffffffffffffffffffffffffffffff1916827bffffffffffffffffffffffffffffffffffffffffffffffffffffffff1916149050919050565b5f806115e384611242565b90505f73ffffffffffffffffffffffffffffffffffffffff168373ffffffffffffffffffffffffffffffffffffffff1614611624576116238184866119a0565b5b5f73ffffffffffffffffffffffffffffffffffffffff168173ffffffffffffffffffffffffffffffffffffffff16146116af576116635f855f8061127b565b600160035f8373ffffffffffffffffffffffffffffffffffffffff1673ffffffffffffffffffffffffffffffffffffffff1681526020019081526020015f205f82825403925050819055505b5f73ffffffffffffffffffffffffffffffffffffffff168573ffffffffffffffffffffffffffffffffffffffff161461172e57600160035f8773ffffffffffffffffffffffffffffffffffffffff1673ffffffffffffffffffffffffffffffffffffffff1681526020019081526020015f205f82825401925050819055505b8460025f8681526020019081526020015f205f6101000a81548173ffffffffffffffffffffffffffffffffffffffff021916908373ffffffffffffffffffffffffffffffffffffffff160217905550838573ffffffffffffffffffffffffffffffffffffffff168273ffffffffffffffffffffffffffffffffffffffff167fddf252ad1be2c89b69c2b068fc378daa952ba7f163c4a11628f55a4df523b3ef60405160405180910390a4809150509392505050565b5f73ffffffffffffffffffffffffffffffffffffffff168273ffffffffffffffffffffffffffffffffffffffff1603611853575f6040517f64a0ae9200000000000000000000000000000000000000000000000000000000815260040161184a9190611e65565b60405180910390fd5b5f61185f83835f610aa0565b90505f73ffffffffffffffffffffffffffffffffffffffff168173ffffffffffffffffffffffffffffffffffffffff16146118d1575f6040517f73c6ac6e0000000000000000000000000000000000000000000000000000000081526004016118c89190611e65565b60405180910390fd5b505050565b60605f60016118e484611a63565b0190505f8167ffffffffffffffff81111561190257611901611f3e565b5b6040519080825280601f01601f1916602001820160405280156119345781602001600182028036833780820191505090505b5090505f82602001820190505b600115611995578080600190039150507f3031323334353637383961626364656600000000000000000000000000000000600a86061a8153600a858161198a57611989612829565b5b0494505f8503611941575b819350505050919050565b6119ab838383611bb4565b611a5e575f73ffffffffffffffffffffffffffffffffffffffff168373ffffffffffffffffffffffffffffffffffffffff1603611a1f57806040517f7e273289000000000000000000000000000000000000000000000000000000008152600401611a16919061211c565b60405180910390fd5b81816040517f177e802f000000000000000000000000000000000000000000000000000000008152600401611a55929190612856565b60405180910390fd5b505050565b5f805f90507a184f03e93ff9f4daa797ed6e38ed64bf6a1f0100000000000000008310611abf577a184f03e93ff9f4daa797ed6e38ed64bf6a1f0100000000000000008381611ab557611ab4612829565b5b0492506040810190505b6d04ee2d6d415b85acef81000000008310611afc576d04ee2d6d415b85acef81000000008381611af257611af1612829565b5b0492506020810190505b662386f26fc100008310611b2b57662386f26fc100008381611b2157611b20612829565b5b0492506010810190505b6305f5e1008310611b54576305f5e1008381611b4a57611b49612829565b5b0492506008810190505b6127108310611b79576127108381611b6f57611b6e612829565b5b0492506004810190505b60648310611b9c5760648381611b9257611b91612829565b5b0492506002810190505b600a8310611bab576001810190505b80915050919050565b5f8073ffffffffffffffffffffffffffffffffffffffff168373ffffffffffffffffffffffffffffffffffffffff1614158015611c6b57508273ffffffffffffffffffffffffffffffffffffffff168473ffffffffffffffffffffffffffffffffffffffff161480611c2c5750611c2b8484610856565b5b80611c6a57508273ffffffffffffffffffffffffffffffffffffffff16611c5283610a4e565b73ffffffffffffffffffffffffffffffffffffffff16145b5b90509392505050565b5f604051905090565b5f80fd5b5f80fd5b5f7fffffffff0000000000000000000000000000000000000000000000000000000082169050919050565b611cb981611c85565b8114611cc3575f80fd5b50565b5f81359050611cd481611cb0565b92915050565b5f60208284031215611cef57611cee611c7d565b5b5f611cfc84828501611cc6565b91505092915050565b5f8115159050919050565b611d1981611d05565b82525050565b5f602082019050611d325f830184611d10565b92915050565b5f81519050919050565b5f82825260208201905092915050565b8281835e5f83830152505050565b5f601f19601f8301169050919050565b5f611d7a82611d38565b611d848185611d42565b9350611d94818560208601611d52565b611d9d81611d60565b840191505092915050565b5f6020820190508181035f830152611dc08184611d70565b905092915050565b5f819050919050565b611dda81611dc8565b8114611de4575f80fd5b50565b5f81359050611df581611dd1565b92915050565b5f60208284031215611e1057611e0f611c7d565b5b5f611e1d84828501611de7565b91505092915050565b5f73ffffffffffffffffffffffffffffffffffffffff82169050919050565b5f611e4f82611e26565b9050919050565b611e5f81611e45565b82525050565b5f602082019050611e785f830184611e56565b92915050565b611e8781611e45565b8114611e91575f80fd5b50565b5f81359050611ea281611e7e565b92915050565b5f8060408385031215611ebe57611ebd611c7d565b5b5f611ecb85828601611e94565b9250506020611edc85828601611de7565b9150509250929050565b5f805f60608486031215611efd57611efc611c7d565b5b5f611f0a86828701611e94565b9350506020611f1b86828701611e94565b9250506040611f2c86828701611de7565b9150509250925092565b5f80fd5b5f80fd5b7f4e487b71000000000000000000000000000000000000000000000000000000005f52604160045260245ffd5b611f7482611d60565b810181811067ffffffffffffffff82111715611f9357611f92611f3e565b5b80604052505050565b5f611fa5611c74565b9050611fb18282611f6b565b919050565b5f67ffffffffffffffff821115611fd057611fcf611f3e565b5b611fd982611d60565b9050602081019050919050565b828183375f83830152505050565b5f61200661200184611fb6565b611f9c565b90508281526020810184848401111561202257612021611f3a565b5b61202d848285611fe6565b509392505050565b5f82601f83011261204957612048611f36565b5b8135612059848260208601611ff4565b91505092915050565b5f805f806080858703121561207a57612079611c7d565b5b5f61208787828801611e94565b945050602061209887828801611de7565b93505060406120a987828801611de7565b925050606085013567ffffffffffffffff8111156120ca576120c9611c81565b5b6120d687828801612035565b91505092959194509250565b5f602082840312156120f7576120f6611c7d565b5b5f61210484828501611e94565b91505092915050565b61211681611dc8565b82525050565b5f60208201905061212f5f83018461210d565b92915050565b61213e81611d05565b8114612148575f80fd5b50565b5f8135905061215981612135565b92915050565b5f806040838503121561217557612174611c7d565b5b5f61218285828601611e94565b92505060206121938582860161214b565b9150509250929050565b5f67ffffffffffffffff8211156121b7576121b6611f3e565b5b6121c082611d60565b9050602081019050919050565b5f6121df6121da8461219d565b611f9c565b9050828152602081018484840111156121fb576121fa611f3a565b5b612206848285611fe6565b509392505050565b5f82601f83011261222257612221611f36565b5b81356122328482602086016121cd565b91505092915050565b5f805f806080858703121561225357612252611c7d565b5b5f61226087828801611e94565b945050602061227187828801611e94565b935050604061228287828801611de7565b925050606085013567ffffffffffffffff8111156122a3576122a2611c81565b5b6122af8782880161220e565b91505092959194509250565b5f805f606084860312156122d2576122d1611c7d565b5b5f6122df86828701611e94565b93505060206122f086828701611de7565b925050604084013567ffffffffffffffff81111561231157612310611c81565b5b61231d86828701612035565b9150509250925092565b5f806040838503121561233d5761233c611c7d565b5b5f61234a85828601611e94565b925050602061235b85828601611e94565b9150509250929050565b7f4e487b71000000000000000000000000000000000000000000000000000000005f52602260045260245ffd5b5f60028204905060018216806123a957607f821691505b6020821081036123bc576123bb612365565b5b50919050565b5f6060820190506123d55f830186611e56565b6123e2602083018561210d565b6123ef6040830184611e56565b949350505050565b7f456e6572677920636f6e73756d7074696f6e20746f6f206869676820746f20725f8201527f6577617264000000000000000000000000000000000000000000000000000000602082015250565b5f612451602583611d42565b915061245c826123f7565b604082019050919050565b5f6020820190508181035f83015261247e81612445565b9050919050565b5f819050815f5260205f209050919050565b5f6020601f8301049050919050565b5f82821b905092915050565b5f600883026124e17fffffffffffffffffffffffffffffffffffffffffffffffffffffffffffffffff826124a6565b6124eb86836124a6565b95508019841693508086168417925050509392505050565b5f819050919050565b5f61252661252161251c84611dc8565b612503565b611dc8565b9050919050565b5f819050919050565b61253f8361250c565b61255361254b8261252d565b8484546124b2565b825550505050565b5f90565b61256761255b565b612572818484612536565b505050565b5b818110156125955761258a5f8261255f565b600181019050612578565b5050565b601f8211156125da576125ab81612485565b6125b484612497565b810160208510156125c3578190505b6125d76125cf85612497565b830182612577565b50505b505050565b5f82821c905092915050565b5f6125fa5f19846008026125df565b1980831691505092915050565b5f61261283836125eb565b9150826002028217905092915050565b61262b82611d38565b67ffffffffffffffff81111561264457612643611f3e565b5b61264e8254612392565b612659828285612599565b5f60209050601f83116001811461268a575f8415612678578287015190505b6126828582612607565b8655506126e9565b601f19841661269886612485565b5f5b828110156126bf5784890151825560018201915060208501945060208101905061269a565b868310156126dc57848901516126d8601f8916826125eb565b8355505b6001600288020188555050505b505050505050565b5f81519050919050565b5f82825260208201905092915050565b5f612715826126f1565b61271f81856126fb565b935061272f818560208601611d52565b61273881611d60565b840191505092915050565b5f6080820190506127565f830187611e56565b6127636020830186611e56565b612770604083018561210d565b8181036060830152612782818461270b565b905095945050505050565b5f8151905061279b81611cb0565b92915050565b5f602082840312156127b6576127b5611c7d565b5b5f6127c38482850161278d565b91505092915050565b5f81905092915050565b5f6127e082611d38565b6127ea81856127cc565b93506127fa818560208601611d52565b80840191505092915050565b5f61281182856127d6565b915061281d82846127d6565b91508190509392505050565b7f4e487b71000000000000000000000000000000000000000000000000000000005f52601260045260245ffd5b5f6040820190506128695f830185611e56565b612876602083018461210d565b939250505056fea2646970667358221220876453473001e652eea704ad4aba76aa2d3abb3ac8d07c8df617fbd7cca9692964736f6c634300081a0033",
  "immutableReferences": {},
  "source": "// SPDX-License-Identifier: MIT\r\n// Compatible with OpenZeppelin Contracts ^5.0.0\r\npragma solidity ^0.8.20;\r\n\r\nimport \"@openzeppelin/contracts/token/ERC721/ERC721.sol\";\r\nimport \"@openzeppelin/contracts/token/ERC721/extensions/ERC721URIStorage.sol\";\r\nimport \"@openzeppelin/contracts/token/ERC721/extensions/ERC721Pausable.sol\";\r\nimport \"@openzeppelin/contracts/access/Ownable.sol\";\r\n\r\ncontract MyNFT is ERC721, ERC721URIStorage, ERC721Pausable, Ownable {\r\n    constructor(\r\n        address initialOwner\r\n    ) ERC721(\"MyNFT\", \"VNFT\") Ownable(initialOwner) {}\r\n\r\n    function pause() public onlyOwner {\r\n        _pause();\r\n    }\r\n\r\n    function unpause() public onlyOwner {\r\n        _unpause();\r\n    }\r\n\r\n    function safeMint(\r\n        address to,\r\n        uint256 tokenId,\r\n        string memory uri\r\n    ) public onlyOwner {\r\n        _safeMint(to, tokenId);\r\n        _setTokenURI(tokenId, uri);\r\n    }\r\n\r\n    function rewardIfEnergyLow(\r\n        address to,\r\n        uint256 energyConsumption,\r\n        uint256 tokenId,\r\n        string memory uri\r\n    ) public onlyOwner {\r\n        require(\r\n            energyConsumption <= 50,\r\n            \"Energy consumption too high to reward\"\r\n        );\r\n        _safeMint(to, tokenId);\r\n        _setTokenURI(tokenId, uri);\r\n    }\r\n\r\n    function _update(\r\n        address to,\r\n        uint256 tokenId,\r\n        address auth\r\n    ) internal override(ERC721, ERC721Pausable) returns (address) {\r\n        return super._update(to, tokenId, auth);\r\n    }\r\n\r\n    function tokenURI(\r\n        uint256 tokenId\r\n    ) public view override(ERC721, ERC721URIStorage) returns (string memory) {\r\n        return super.tokenURI(tokenId);\r\n    }\r\n\r\n    function supportsInterface(\r\n        bytes4 interfaceId\r\n    ) public view override(ERC721, ERC721URIStorage) returns (bool) {\r\n        return super.supportsInterface(interfaceId);\r\n    }\r\n}\r\n",
  "sourcePath": "C:\\Users\\Sabri\\Desktop\\Dashboard\\token\\contracts\\MyNFT.sol",
  "compiler": {
    "name": "solc",
    "version": "0.8.26+commit.8a97fa7a.Emscripten.clang"
  },
  "schemaVersion": "3.4.16",
  "updatedAt": "2024-06-17T18:20:48.195Z",
  "devdoc": {
    "errors": {
      "ERC721IncorrectOwner(address,uint256,address)": [
        {
          "details": "Indicates an error related to the ownership over a particular token. Used in transfers.",
          "params": {
            "owner": "Address of the current owner of a token.",
            "sender": "Address whose tokens are being transferred.",
            "tokenId": "Identifier number of a token."
          }
        }
      ],
      "ERC721InsufficientApproval(address,uint256)": [
        {
          "details": "Indicates a failure with the `operator`s approval. Used in transfers.",
          "params": {
            "operator": "Address that may be allowed to operate on tokens without being their owner.",
            "tokenId": "Identifier number of a token."
          }
        }
      ],
      "ERC721InvalidApprover(address)": [
        {
          "details": "Indicates a failure with the `approver` of a token to be approved. Used in approvals.",
          "params": {
            "approver": "Address initiating an approval operation."
          }
        }
      ],
      "ERC721InvalidOperator(address)": [
        {
          "details": "Indicates a failure with the `operator` to be approved. Used in approvals.",
          "params": {
            "operator": "Address that may be allowed to operate on tokens without being their owner."
          }
        }
      ],
      "ERC721InvalidOwner(address)": [
        {
          "details": "Indicates that an address can't be an owner. For example, `address(0)` is a forbidden owner in EIP-20. Used in balance queries.",
          "params": {
            "owner": "Address of the current owner of a token."
          }
        }
      ],
      "ERC721InvalidReceiver(address)": [
        {
          "details": "Indicates a failure with the token `receiver`. Used in transfers.",
          "params": {
            "receiver": "Address to which tokens are being transferred."
          }
        }
      ],
      "ERC721InvalidSender(address)": [
        {
          "details": "Indicates a failure with the token `sender`. Used in transfers.",
          "params": {
            "sender": "Address whose tokens are being transferred."
          }
        }
      ],
      "ERC721NonexistentToken(uint256)": [
        {
          "details": "Indicates a `tokenId` whose `owner` is the zero address.",
          "params": {
            "tokenId": "Identifier number of a token."
          }
        }
      ],
      "EnforcedPause()": [
        {
          "details": "The operation failed because the contract is paused."
        }
      ],
      "ExpectedPause()": [
        {
          "details": "The operation failed because the contract is not paused."
        }
      ],
      "OwnableInvalidOwner(address)": [
        {
          "details": "The owner is not a valid owner account. (eg. `address(0)`)"
        }
      ],
      "OwnableUnauthorizedAccount(address)": [
        {
          "details": "The caller account is not authorized to perform an operation."
        }
      ]
    },
    "events": {
      "Approval(address,address,uint256)": {
        "details": "Emitted when `owner` enables `approved` to manage the `tokenId` token."
      },
      "ApprovalForAll(address,address,bool)": {
        "details": "Emitted when `owner` enables or disables (`approved`) `operator` to manage all of its assets."
      },
      "BatchMetadataUpdate(uint256,uint256)": {
        "details": "This event emits when the metadata of a range of tokens is changed. So that the third-party platforms such as NFT market could timely update the images and related attributes of the NFTs."
      },
      "MetadataUpdate(uint256)": {
        "details": "This event emits when the metadata of a token is changed. So that the third-party platforms such as NFT market could timely update the images and related attributes of the NFT."
      },
      "Paused(address)": {
        "details": "Emitted when the pause is triggered by `account`."
      },
      "Transfer(address,address,uint256)": {
        "details": "Emitted when `tokenId` token is transferred from `from` to `to`."
      },
      "Unpaused(address)": {
        "details": "Emitted when the pause is lifted by `account`."
      }
    },
    "kind": "dev",
    "methods": {
      "approve(address,uint256)": {
        "details": "See {IERC721-approve}."
      },
      "balanceOf(address)": {
        "details": "See {IERC721-balanceOf}."
      },
      "getApproved(uint256)": {
        "details": "See {IERC721-getApproved}."
      },
      "isApprovedForAll(address,address)": {
        "details": "See {IERC721-isApprovedForAll}."
      },
      "name()": {
        "details": "See {IERC721Metadata-name}."
      },
      "owner()": {
        "details": "Returns the address of the current owner."
      },
      "ownerOf(uint256)": {
        "details": "See {IERC721-ownerOf}."
      },
      "paused()": {
        "details": "Returns true if the contract is paused, and false otherwise."
      },
      "renounceOwnership()": {
        "details": "Leaves the contract without owner. It will not be possible to call `onlyOwner` functions. Can only be called by the current owner. NOTE: Renouncing ownership will leave the contract without an owner, thereby disabling any functionality that is only available to the owner."
      },
      "safeTransferFrom(address,address,uint256)": {
        "details": "See {IERC721-safeTransferFrom}."
      },
      "safeTransferFrom(address,address,uint256,bytes)": {
        "details": "See {IERC721-safeTransferFrom}."
      },
      "setApprovalForAll(address,bool)": {
        "details": "See {IERC721-setApprovalForAll}."
      },
      "symbol()": {
        "details": "See {IERC721Metadata-symbol}."
      },
      "transferFrom(address,address,uint256)": {
        "details": "See {IERC721-transferFrom}."
      },
      "transferOwnership(address)": {
        "details": "Transfers ownership of the contract to a new account (`newOwner`). Can only be called by the current owner."
      }
    },
    "version": 1
  },
  "userdoc": {
    "kind": "user",
    "methods": {},
    "version": 1
  }
}